{"abi":[{"type":"constructor","inputs":[{"name":"erc20Address","type":"address","internalType":"address"}],"stateMutability":"nonpayable"},{"type":"function","name":"balanceOf","inputs":[{"name":"account","type":"address","internalType":"address"},{"name":"id","type":"uint256","internalType":"uint256"}],"outputs":[{"name":"","type":"uint256","internalType":"uint256"}],"stateMutability":"view"},{"type":"function","name":"balanceOfBatch","inputs":[{"name":"accounts","type":"address[]","internalType":"address[]"},{"name":"ids","type":"uint256[]","internalType":"uint256[]"}],"outputs":[{"name":"","type":"uint256[]","internalType":"uint256[]"}],"stateMutability":"view"},{"type":"function","name":"baseURI","inputs":[],"outputs":[{"name":"","type":"string","internalType":"string"}],"stateMutability":"view"},{"type":"function","name":"burn","inputs":[{"name":"","type":"address","internalType":"address"},{"name":"","type":"uint256","internalType":"uint256"},{"name":"","type":"uint256","internalType":"uint256"}],"outputs":[],"stateMutability":"pure"},{"type":"function","name":"burnBatch","inputs":[{"name":"","type":"address","internalType":"address"},{"name":"","type":"uint256[]","internalType":"uint256[]"},{"name":"","type":"uint256[]","internalType":"uint256[]"}],"outputs":[],"stateMutability":"pure"},{"type":"function","name":"burnLeaf","inputs":[{"name":"from","type":"address","internalType":"address"},{"name":"treeID","type":"uint48","internalType":"uint48"}],"outputs":[],"stateMutability":"nonpayable"},{"type":"function","name":"isApprovedForAll","inputs":[{"name":"account","type":"address","internalType":"address"},{"name":"operator","type":"address","internalType":"address"}],"outputs":[{"name":"","type":"bool","internalType":"bool"}],"stateMutability":"view"},{"type":"function","name":"leafBalance","inputs":[{"name":"user","type":"address","internalType":"address"},{"name":"treeID","type":"uint48","internalType":"uint48"}],"outputs":[{"name":"","type":"uint256","internalType":"uint256"}],"stateMutability":"view"},{"type":"function","name":"mintTree","inputs":[{"name":"to","type":"address","internalType":"address"},{"name":"data","type":"bytes","internalType":"bytes"}],"outputs":[],"stateMutability":"nonpayable"},{"type":"function","name":"mintTree","inputs":[{"name":"to","type":"address","internalType":"address"},{"name":"leafAmount","type":"uint48","internalType":"uint48"},{"name":"leafPrice","type":"uint256","internalType":"uint256"},{"name":"data","type":"bytes","internalType":"bytes"}],"outputs":[],"stateMutability":"nonpayable"},{"type":"function","name":"owner","inputs":[],"outputs":[{"name":"","type":"address","internalType":"address"}],"stateMutability":"view"},{"type":"function","name":"renounceOwnership","inputs":[],"outputs":[],"stateMutability":"nonpayable"},{"type":"function","name":"safeBatchTransferFrom","inputs":[{"name":"","type":"address","internalType":"address"},{"name":"","type":"address","internalType":"address"},{"name":"","type":"uint256[]","internalType":"uint256[]"},{"name":"","type":"uint256[]","internalType":"uint256[]"},{"name":"","type":"bytes","internalType":"bytes"}],"outputs":[],"stateMutability":"pure"},{"type":"function","name":"safeTransferFrom","inputs":[{"name":"","type":"address","internalType":"address"},{"name":"","type":"address","internalType":"address"},{"name":"","type":"uint256","internalType":"uint256"},{"name":"","type":"uint256","internalType":"uint256"},{"name":"","type":"bytes","internalType":"bytes"}],"outputs":[],"stateMutability":"pure"},{"type":"function","name":"setApprovalForAll","inputs":[{"name":"","type":"address","internalType":"address"},{"name":"","type":"bool","internalType":"bool"}],"outputs":[],"stateMutability":"pure"},{"type":"function","name":"setBaseURI","inputs":[{"name":"newURI","type":"string","internalType":"string"}],"outputs":[],"stateMutability":"nonpayable"},{"type":"function","name":"setTokenURI","inputs":[{"name":"tokenID","type":"uint256","internalType":"uint256"},{"name":"newURI","type":"string","internalType":"string"}],"outputs":[],"stateMutability":"nonpayable"},{"type":"function","name":"supportsInterface","inputs":[{"name":"interfaceId","type":"bytes4","internalType":"bytes4"}],"outputs":[{"name":"","type":"bool","internalType":"bool"}],"stateMutability":"view"},{"type":"function","name":"transferOwnership","inputs":[{"name":"newOwner","type":"address","internalType":"address"}],"outputs":[],"stateMutability":"nonpayable"},{"type":"function","name":"treeIDs","inputs":[{"name":"user","type":"address","internalType":"address"}],"outputs":[{"name":"","type":"uint48[]","internalType":"uint48[]"}],"stateMutability":"view"},{"type":"function","name":"uri","inputs":[{"name":"tokenID","type":"uint256","internalType":"uint256"}],"outputs":[{"name":"","type":"string","internalType":"string"}],"stateMutability":"view"},{"type":"event","name":"ApprovalForAll","inputs":[{"name":"account","type":"address","indexed":true,"internalType":"address"},{"name":"operator","type":"address","indexed":true,"internalType":"address"},{"name":"approved","type":"bool","indexed":false,"internalType":"bool"}],"anonymous":false},{"type":"event","name":"BurnLeaf","inputs":[{"name":"user","type":"address","indexed":false,"internalType":"address"},{"name":"leafID","type":"uint256","indexed":false,"internalType":"uint256"},{"name":"tokensEarned","type":"uint256","indexed":false,"internalType":"uint256"}],"anonymous":false},{"type":"event","name":"MintTree","inputs":[{"name":"user","type":"address","indexed":false,"internalType":"address"},{"name":"treeID","type":"uint48","indexed":false,"internalType":"uint48"},{"name":"leafAmount","type":"uint48","indexed":false,"internalType":"uint48"},{"name":"leafPrice","type":"uint256","indexed":false,"internalType":"uint256"}],"anonymous":false},{"type":"event","name":"OwnershipTransferred","inputs":[{"name":"previousOwner","type":"address","indexed":true,"internalType":"address"},{"name":"newOwner","type":"address","indexed":true,"internalType":"address"}],"anonymous":false},{"type":"event","name":"TransferBatch","inputs":[{"name":"operator","type":"address","indexed":true,"internalType":"address"},{"name":"from","type":"address","indexed":true,"internalType":"address"},{"name":"to","type":"address","indexed":true,"internalType":"address"},{"name":"ids","type":"uint256[]","indexed":false,"internalType":"uint256[]"},{"name":"values","type":"uint256[]","indexed":false,"internalType":"uint256[]"}],"anonymous":false},{"type":"event","name":"TransferSingle","inputs":[{"name":"operator","type":"address","indexed":true,"internalType":"address"},{"name":"from","type":"address","indexed":true,"internalType":"address"},{"name":"to","type":"address","indexed":true,"internalType":"address"},{"name":"id","type":"uint256","indexed":false,"internalType":"uint256"},{"name":"value","type":"uint256","indexed":false,"internalType":"uint256"}],"anonymous":false},{"type":"event","name":"TreeOutworn","inputs":[{"name":"user","type":"address","indexed":false,"internalType":"address"},{"name":"treeID","type":"uint48","indexed":false,"internalType":"uint48"}],"anonymous":false},{"type":"event","name":"URI","inputs":[{"name":"value","type":"string","indexed":false,"internalType":"string"},{"name":"id","type":"uint256","indexed":true,"internalType":"uint256"}],"anonymous":false},{"type":"error","name":"ERC1155InsufficientBalance","inputs":[{"name":"sender","type":"address","internalType":"address"},{"name":"balance","type":"uint256","internalType":"uint256"},{"name":"needed","type":"uint256","internalType":"uint256"},{"name":"tokenId","type":"uint256","internalType":"uint256"}]},{"type":"error","name":"ERC1155InvalidApprover","inputs":[{"name":"approver","type":"address","internalType":"address"}]},{"type":"error","name":"ERC1155InvalidArrayLength","inputs":[{"name":"idsLength","type":"uint256","internalType":"uint256"},{"name":"valuesLength","type":"uint256","internalType":"uint256"}]},{"type":"error","name":"ERC1155InvalidOperator","inputs":[{"name":"operator","type":"address","internalType":"address"}]},{"type":"error","name":"ERC1155InvalidReceiver","inputs":[{"name":"receiver","type":"address","internalType":"address"}]},{"type":"error","name":"ERC1155InvalidSender","inputs":[{"name":"sender","type":"address","internalType":"address"}]},{"type":"error","name":"ERC1155MissingApprovalForAll","inputs":[{"name":"operator","type":"address","internalType":"address"},{"name":"owner","type":"address","internalType":"address"}]},{"type":"error","name":"OwnableInvalidOwner","inputs":[{"name":"owner","type":"address","internalType":"address"}]},{"type":"error","name":"OwnableUnauthorizedAccount","inputs":[{"name":"account","type":"address","internalType":"address"}]}],"bytecode":{"object":"0x608060405234801561001057600080fd5b5060405161273638038061273683398101604081905261002f91610109565b6040805160208101909152600081523390610049816100a7565b506001600160a01b03811661007857604051631e4fbdf760e01b81526000600482015260240160405180910390fd5b610081816100b7565b50600480546001600160a01b0319166001600160a01b0392909216919091179055610296565b60026100b382826101d8565b5050565b600380546001600160a01b038381166001600160a01b0319831681179093556040519116919082907f8be0079c531659141344cd1fd0a4f28419497f9722a3daafe3b4186f6b6457e090600090a35050565b60006020828403121561011b57600080fd5b81516001600160a01b038116811461013257600080fd5b9392505050565b634e487b7160e01b600052604160045260246000fd5b600181811c9082168061016357607f821691505b60208210810361018357634e487b7160e01b600052602260045260246000fd5b50919050565b601f8211156101d357806000526020600020601f840160051c810160208510156101b05750805b601f840160051c820191505b818110156101d057600081556001016101bc565b50505b505050565b81516001600160401b038111156101f1576101f1610139565b610205816101ff845461014f565b84610189565b6020601f82116001811461023957600083156102215750848201515b600019600385901b1c1916600184901b1784556101d0565b600084815260208120601f198516915b828110156102695787850151825560209485019460019092019101610249565b50848210156102875786840151600019600387901b60f8161c191681555b50505050600190811b01905550565b612491806102a56000396000f3fe608060405234801561001057600080fd5b50600436106101365760003560e01c806367e06808116100b8578063a22cb4651161007c578063a22cb46514610291578063b81111bf1461029f578063e985e9c5146102b2578063f242432a146102ee578063f2fde38b146102fc578063f5298aca1461030f57600080fd5b806367e06808146102455780636b20c454146102585780636c0360eb14610266578063715018a61461026e5780638da5cb5b1461027657600080fd5b80633d982083116100ff5780633d982083146101cc5780634e1273f4146101ec578063547f41561461020c57806355f804b31461021f57806357dfd28b1461023257600080fd5b8062fdd58e1461013b57806301ffc9a7146101615780630e89341c14610184578063162094c4146101a45780632eb2c2d6146101b9575b600080fd5b61014e6101493660046119cf565b61031d565b6040519081526020015b60405180910390f35b61017461016f366004611a0f565b610345565b6040519015158152602001610158565b610197610192366004611a2c565b610395565b6040516101589190611a8b565b6101b76101b2366004611ae6565b6104dc565b005b6101b76101c7366004611c76565b61053d565b6101df6101da366004611d29565b610575565b6040516101589190611d44565b6101ff6101fa366004611d8f565b61063f565b6040516101589190611e92565b6101b761021a366004611ea5565b61070b565b6101b761022d366004611ee8565b610729565b6101b7610240366004611f3f565b610743565b6101b7610253366004611fa6565b610ae5565b6101b76101c7366004611fd9565b610197610e99565b6101b7610f2b565b6003546040516001600160a01b039091168152602001610158565b6101b76101c7366004612050565b61014e6102ad366004611fa6565b610f3f565b6101746102c036600461208c565b6001600160a01b03918216600090815260016020908152604080832093909416825291909152205460ff1690565b6101b76101c73660046120b6565b6101b761030a366004611d29565b610f9f565b6101b76101c736600461210e565b6000818152602081815260408083206001600160a01b03861684529091529020545b92915050565b60006001600160e01b03198216636cdb3d1360e11b148061037657506001600160e01b031982166303a24d0760e21b145b8061033f57506301ffc9a760e01b6001600160e01b031983161461033f565b6000818152600660205260408120805460609291906103b390612141565b80601f01602080910402602001604051908101604052809291908181526020018280546103df90612141565b801561042c5780601f106104015761010080835404028352916020019161042c565b820191906000526020600020905b81548152906001019060200180831161040f57829003601f168201915b505050505090506000815111156104435792915050565b6005805461045090612141565b80601f016020809104026020016040519081016040528092919081815260200182805461047c90612141565b80156104c95780601f1061049e576101008083540402835291602001916104c9565b820191906000526020600020905b8154815290600101906020018083116104ac57829003601f168201915b5050505050915050919050565b50919050565b6104e4610fdd565b60008381526006602052604090206104fd8284836121bc565b50827f6bb7ff708619ba0610cba295a58592e0451dee2622938c8755667688daf3529b838360405161053092919061227b565b60405180910390a2505050565b60405162461bcd60e51b8152602060048201526008602482015267191a5cd8589b195960c21b60448201526064015b60405180910390fd5b6060600061062d61062860086000866001600160a01b03166001600160a01b0316815260200190815260200160002080548060200260200160405190810160405280929190818152602001828054801561061e57602002820191906000526020600020906000905b82829054906101000a900465ffffffffffff1665ffffffffffff16815260200190600601906020826005010492830192600103820291508084116105dd5790505b505050505061100a565b6110a4565b9050610638816110b9565b9392505050565b606081518351146106705781518351604051635b05999160e01b81526004810192909252602482015260440161056c565b600083516001600160401b0381111561068b5761068b611b31565b6040519080825280602002602001820160405280156106b4578160200160208202803683370190505b50905060005b8451811015610703576020808202860101516106de9060208084028701015161031d565b8282815181106106f0576106f06122aa565b60209081029190910101526001016106ba565b509392505050565b610713610fdd565b6032600161072384838386610743565b50505050565b610731610fdd565b600561073e8284836121bc565b505050565b61074b610fdd565b8260008165ffffffffffff161161079b5760405162461bcd60e51b8152602060048201526014602482015273547265652063616e6e6f7420626520656d70747960601b604482015260640161056c565b6001600160a01b038516600090815260076020526040812054869165ffffffffffff9182169187166001600160401b038111156107da576107da611b31565b604051908082528060200260200182016040528015610803578160200160208202803683370190505b50905060005b8151811015610869578061083160006bffffffffffffffffffffffff19606088901b166122d6565b6001600160a01b031661084491906122f5565b828281518110610856576108566122aa565b6020908102919091010152600101610809565b5060008765ffffffffffff166001600160401b0381111561088c5761088c611b31565b6040519080825280602002602001820160405280156108b5578160200160208202803683370190505b50905060005b81518110156108eb5760018282815181106108d8576108d86122aa565b60209081029190910101526001016108bb565b506108f889838389611157565b610902898461118f565b6001600160a01b038916600090815260076020526040812080546001929061093390849065ffffffffffff16612308565b92506101000a81548165ffffffffffff021916908365ffffffffffff16021790555087600b60008b6001600160a01b03166001600160a01b0316815260200190815260200160002060008565ffffffffffff1665ffffffffffff16815260200190815260200160002060006101000a81548165ffffffffffff021916908365ffffffffffff16021790555086600c60008b6001600160a01b03166001600160a01b0316815260200190815260200160002060008565ffffffffffff1665ffffffffffff168152602001908152602001600020819055506000600a60008b6001600160a01b03166001600160a01b0316815260200190815260200160002060008565ffffffffffff1665ffffffffffff16815260200190815260200160002060006101000a81548165ffffffffffff021916908365ffffffffffff1602179055507fc4d56b181494de828410de53a1369c244741429e86a406e6d108d3c1482d699189848a8a604051610ad294939291906001600160a01b0394909416845265ffffffffffff928316602085015291166040830152606082015260800190565b60405180910390a1505050505050505050565b610aed610fdd565b6001600160a01b0382166000908152600b6020908152604080832065ffffffffffff80861685529252909120548391839116610b625760405162461bcd60e51b815260206004820152601460248201527354686520747265652069736e277420616c69766560601b604482015260640161056c565b6001600160a01b0382166000818152600b6020908152604080832065ffffffffffff80871680865291845282852054958552600a8452828520918552925290912054918116911610610bf65760405162461bcd60e51b815260206004820152601b60248201527f546865207472656520686173206e6f206c6561766573206c6566740000000000604482015260640161056c565b6001600160a01b0384166000908152600a6020908152604080832065ffffffffffff8088168552925282205486929116610c43826bffffffffffffffffffffffff19606086901b166122d6565b610c4d91906122d6565b6001600160a01b038781166000908152600c6020908152604080832065ffffffffffff8b16845290915290205491169150610c8a87836001611221565b600480546040516340c10f1960e01b81526001600160a01b038a811693820193909352602481018490529116906340c10f1990604401600060405180830381600087803b158015610cda57600080fd5b505af1158015610cee573d6000803e3d6000fd5b5050604080516001600160a01b038b168152602081018690529081018490527fab96fbeff2c5579115926dd1ac39b6ebe49c560429d2647cda05312d392f7fc49250606001905060405180910390a16001600160a01b0387166000908152600a6020908152604080832065ffffffffffff808b1685529252822080546001939192610d7b91859116612308565b82546101009290920a65ffffffffffff8181021990931691831602179091556001600160a01b0389166000818152600b602090815260408083208c861680855290835281842054948452600a83528184209084529091529020549082169116109050610e9057610deb8787611290565b6001600160a01b0387166000818152600b6020908152604080832065ffffffffffff8b16808552908352818420805465ffffffffffff19908116909155858552600c84528285208286528452828520859055858552600a845282852082865284529382902080549094169093558051938452908301919091527f7faf9676bb178d0b239385cc3801453085c48ef0a68cb4b29db284cf8c690e66910160405180910390a15b50505050505050565b606060058054610ea890612141565b80601f0160208091040260200160405190810160405280929190818152602001828054610ed490612141565b8015610f215780601f10610ef657610100808354040283529160200191610f21565b820191906000526020600020905b815481529060010190602001808311610f0457829003601f168201915b5050505050905090565b610f33610fdd565b610f3d6000611433565b565b6001600160a01b0382166000818152600a6020908152604080832065ffffffffffff80871680865291845282852054958552600b845282852091855292528220549192610f90929082169116612326565b65ffffffffffff169392505050565b610fa7610fdd565b6001600160a01b038116610fd157604051631e4fbdf760e01b81526000600482015260240161056c565b610fda81611433565b50565b6003546001600160a01b03163314610f3d5760405163118cdaa760e01b815233600482015260240161056c565b606081516001600160401b0381111561102557611025611b31565b60405190808252806020026020018201604052801561104e578160200160208202803683370190505b50905060005b82518110156104d65782818151811061106f5761106f6122aa565b602002602001015165ffffffffffff16828281518110611091576110916122aa565b6020908102919091010152600101611054565b60606110b282611485611489565b5090919050565b606081516001600160401b038111156110d4576110d4611b31565b6040519080825280602002602001820160405280156110fd578160200160208202803683370190505b50905060005b81518110156104d65782818151811061111e5761111e6122aa565b6020026020010151828281518110611138576111386122aa565b65ffffffffffff90921660209283029190910190910152600101611103565b6001600160a01b03841661118157604051632bfa23e760e11b81526000600482015260240161056c565b6107236000858585856114a1565b6001600160a01b0382166000818152600860209081526040822080546001808201835582855292842060058083049091018054919092066006026101000a65ffffffffffff81810219909216918816021790559290915290546111f29190612344565b6001600160a01b03909216600090815260096020908152604080832065ffffffffffff90941683529290522055565b6001600160a01b03831661124a57604051626a0d4560e21b81526000600482015260240161056c565b604080516001808252602082018590528183019081526060820184905260a08201909252600060808201818152919291611289918791859085906114a1565b5050505050565b6001600160a01b038216600081815260096020908152604080832065ffffffffffff8616845282528083205493835260089091528120546112d390600190612344565b6001600160a01b03851660009081526008602052604081208054929350909183908110611302576113026122aa565b90600052602060002090600591828204019190066006029054906101000a900465ffffffffffff1690508060086000876001600160a01b03166001600160a01b031681526020019081526020016000208481548110611363576113636122aa565b6000918252602080832060058084049091018054919093066006026101000a65ffffffffffff8181021990921695821602949094179091556001600160a01b0388168083526009825260408084209486168452938252838320879055825260089052208054806113d5576113d5612357565b600082815260208082206005600019909401848104909101805465ffffffffffff6006968406969096026101000a8602191690559093556001600160a01b039097168752600982526040808820969091168752949052505050812055565b600380546001600160a01b038381166001600160a01b0319831681179093556040519116919082907f8be0079c531659141344cd1fd0a4f28419497f9722a3daafe3b4186f6b6457e090600090a35050565b1190565b60606110b26020840161149b856114fc565b84611514565b6114ad85858585611592565b6001600160a01b0384161561128957825133906001036114e657602084810151908401516114df8389898585896117a6565b50506114f4565b6114f48187878787876118ca565b505050505050565b6000815160200261150d8360200190565b0192915050565b6040838303101561152457505050565b600061152e845190565b905083602081015b8481101561157057611553611549825190565b848663ffffffff16565b15611568576020919091018051825182528252905b602001611536565b508451815186528152611584858285611514565b611289816020018585611514565b80518251146115c15781518151604051635b05999160e01b81526004810192909252602482015260440161056c565b3360005b83518110156116c7576020818102858101820151908501909101516001600160a01b03881615611678576000828152602081815260408083206001600160a01b038c16845290915290205481811015611651576040516303dee4c560e01b81526001600160a01b038a16600482015260248101829052604481018390526064810184905260840161056c565b6000838152602081815260408083206001600160a01b038d16845290915290209082900390555b6001600160a01b038716156116bd576000828152602081815260408083206001600160a01b038b168452909152812080548392906116b79084906122f5565b90915550505b50506001016115c5565b5082516001036117485760208301516000906020840151909150856001600160a01b0316876001600160a01b0316846001600160a01b03167fc3d58168c5ae7397731d063d5bbf3d657854427343f4c083240f7aacaa2d0f628585604051611739929190918252602082015260400190565b60405180910390a45050611289565b836001600160a01b0316856001600160a01b0316826001600160a01b03167f4a39dc06d4c0dbc64b70af90fd698a233a518aa5d07e595d983b8c0526c8f7fb868660405161179792919061236d565b60405180910390a45050505050565b6001600160a01b0384163b156114f45760405163f23a6e6160e01b81526001600160a01b0385169063f23a6e61906117ea908990899088908890889060040161239b565b6020604051808303816000875af1925050508015611825575060408051601f3d908101601f19168201909252611822918101906123e0565b60015b61188e573d808015611853576040519150601f19603f3d011682016040523d82523d6000602084013e611858565b606091505b50805160000361188657604051632bfa23e760e11b81526001600160a01b038616600482015260240161056c565b805181602001fd5b6001600160e01b0319811663f23a6e6160e01b14610e9057604051632bfa23e760e11b81526001600160a01b038616600482015260240161056c565b6001600160a01b0384163b156114f45760405163bc197c8160e01b81526001600160a01b0385169063bc197c819061190e90899089908890889088906004016123fd565b6020604051808303816000875af1925050508015611949575060408051601f3d908101601f19168201909252611946918101906123e0565b60015b611977573d808015611853576040519150601f19603f3d011682016040523d82523d6000602084013e611858565b6001600160e01b0319811663bc197c8160e01b14610e9057604051632bfa23e760e11b81526001600160a01b038616600482015260240161056c565b80356001600160a01b03811681146119ca57600080fd5b919050565b600080604083850312156119e257600080fd5b6119eb836119b3565b946020939093013593505050565b6001600160e01b031981168114610fda57600080fd5b600060208284031215611a2157600080fd5b8135610638816119f9565b600060208284031215611a3e57600080fd5b5035919050565b6000815180845260005b81811015611a6b57602081850181015186830182015201611a4f565b506000602082860101526020601f19601f83011685010191505092915050565b6020815260006106386020830184611a45565b60008083601f840112611ab057600080fd5b5081356001600160401b03811115611ac757600080fd5b602083019150836020828501011115611adf57600080fd5b9250929050565b600080600060408486031215611afb57600080fd5b8335925060208401356001600160401b03811115611b1857600080fd5b611b2486828701611a9e565b9497909650939450505050565b634e487b7160e01b600052604160045260246000fd5b604051601f8201601f191681016001600160401b0381118282101715611b6f57611b6f611b31565b604052919050565b60006001600160401b03821115611b9057611b90611b31565b5060051b60200190565b600082601f830112611bab57600080fd5b8135611bbe611bb982611b77565b611b47565b8082825260208201915060208360051b860101925085831115611be057600080fd5b602085015b83811015611bfd578035835260209283019201611be5565b5095945050505050565b600082601f830112611c1857600080fd5b81356001600160401b03811115611c3157611c31611b31565b611c44601f8201601f1916602001611b47565b818152846020838601011115611c5957600080fd5b816020850160208301376000918101602001919091529392505050565b600080600080600060a08688031215611c8e57600080fd5b611c97866119b3565b9450611ca5602087016119b3565b935060408601356001600160401b03811115611cc057600080fd5b611ccc88828901611b9a565b93505060608601356001600160401b03811115611ce857600080fd5b611cf488828901611b9a565b92505060808601356001600160401b03811115611d1057600080fd5b611d1c88828901611c07565b9150509295509295909350565b600060208284031215611d3b57600080fd5b610638826119b3565b602080825282518282018190526000918401906040840190835b81811015611d8457835165ffffffffffff16835260209384019390920191600101611d5e565b509095945050505050565b60008060408385031215611da257600080fd5b82356001600160401b03811115611db857600080fd5b8301601f81018513611dc957600080fd5b8035611dd7611bb982611b77565b8082825260208201915060208360051b850101925087831115611df957600080fd5b6020840193505b82841015611e2257611e11846119b3565b825260209384019390910190611e00565b945050505060208301356001600160401b03811115611e4057600080fd5b611e4c85828601611b9a565b9150509250929050565b600081518084526020840193506020830160005b82811015611e88578151865260209586019590910190600101611e6a565b5093949350505050565b6020815260006106386020830184611e56565b60008060408385031215611eb857600080fd5b611ec1836119b3565b915060208301356001600160401b03811115611edc57600080fd5b611e4c85828601611c07565b60008060208385031215611efb57600080fd5b82356001600160401b03811115611f1157600080fd5b611f1d85828601611a9e565b90969095509350505050565b803565ffffffffffff811681146119ca57600080fd5b60008060008060808587031215611f5557600080fd5b611f5e856119b3565b9350611f6c60208601611f29565b92506040850135915060608501356001600160401b03811115611f8e57600080fd5b611f9a87828801611c07565b91505092959194509250565b60008060408385031215611fb957600080fd5b611fc2836119b3565b9150611fd060208401611f29565b90509250929050565b600080600060608486031215611fee57600080fd5b611ff7846119b3565b925060208401356001600160401b0381111561201257600080fd5b61201e86828701611b9a565b92505060408401356001600160401b0381111561203a57600080fd5b61204686828701611b9a565b9150509250925092565b6000806040838503121561206357600080fd5b61206c836119b3565b91506020830135801515811461208157600080fd5b809150509250929050565b6000806040838503121561209f57600080fd5b6120a8836119b3565b9150611fd0602084016119b3565b600080600080600060a086880312156120ce57600080fd5b6120d7866119b3565b94506120e5602087016119b3565b9350604086013592506060860135915060808601356001600160401b03811115611d1057600080fd5b60008060006060848603121561212357600080fd5b61212c846119b3565b95602085013595506040909401359392505050565b600181811c9082168061215557607f821691505b6020821081036104d657634e487b7160e01b600052602260045260246000fd5b601f82111561073e57806000526020600020601f840160051c8101602085101561219c5750805b601f840160051c820191505b8181101561128957600081556001016121a8565b6001600160401b038311156121d3576121d3611b31565b6121e7836121e18354612141565b83612175565b6000601f84116001811461221b57600085156122035750838201355b600019600387901b1c1916600186901b178355611289565b600083815260209020601f19861690835b8281101561224c578685013582556020948501946001909201910161222c565b50868210156122695760001960f88860031b161c19848701351681555b505060018560011b0183555050505050565b60208152816020820152818360408301376000818301604090810191909152601f909201601f19160101919050565b634e487b7160e01b600052603260045260246000fd5b634e487b7160e01b600052601160045260246000fd5b6001600160a01b03818116838216019081111561033f5761033f6122c0565b8082018082111561033f5761033f6122c0565b65ffffffffffff818116838216019081111561033f5761033f6122c0565b65ffffffffffff828116828216039081111561033f5761033f6122c0565b8181038181111561033f5761033f6122c0565b634e487b7160e01b600052603160045260246000fd5b6040815260006123806040830185611e56565b82810360208401526123928185611e56565b95945050505050565b6001600160a01b03868116825285166020820152604081018490526060810183905260a0608082018190526000906123d590830184611a45565b979650505050505050565b6000602082840312156123f257600080fd5b8151610638816119f9565b6001600160a01b0386811682528516602082015260a06040820181905260009061242990830186611e56565b828103606084015261243b8186611e56565b9050828103608084015261244f8185611a45565b9897505050505050505056fea26469706673582212205231b7a4d15949df4af600178cf9e7c09e609a62dea4c6da91d96021ab9b6c7864736f6c634300081c0033","linkReferences":{}},"methodIdentifiers":{"balanceOf(address,uint256)":"00fdd58e","balanceOfBatch(address[],uint256[])":"4e1273f4","baseURI()":"6c0360eb","burn(address,uint256,uint256)":"f5298aca","burnBatch(address,uint256[],uint256[])":"6b20c454","burnLeaf(address,uint48)":"67e06808","isApprovedForAll(address,address)":"e985e9c5","leafBalance(address,uint48)":"b81111bf","mintTree(address,bytes)":"547f4156","mintTree(address,uint48,uint256,bytes)":"57dfd28b","owner()":"8da5cb5b","renounceOwnership()":"715018a6","safeBatchTransferFrom(address,address,uint256[],uint256[],bytes)":"2eb2c2d6","safeTransferFrom(address,address,uint256,uint256,bytes)":"f242432a","setApprovalForAll(address,bool)":"a22cb465","setBaseURI(string)":"55f804b3","setTokenURI(uint256,string)":"162094c4","supportsInterface(bytes4)":"01ffc9a7","transferOwnership(address)":"f2fde38b","treeIDs(address)":"3d982083","uri(uint256)":"0e89341c"},"id":42}