{"abi":[{"type":"constructor","inputs":[],"stateMutability":"nonpayable"},{"type":"function","name":"allowance","inputs":[{"name":"owner","type":"address","internalType":"address"},{"name":"spender","type":"address","internalType":"address"}],"outputs":[{"name":"","type":"uint256","internalType":"uint256"}],"stateMutability":"view"},{"type":"function","name":"approve","inputs":[{"name":"spender","type":"address","internalType":"address"},{"name":"value","type":"uint256","internalType":"uint256"}],"outputs":[{"name":"","type":"bool","internalType":"bool"}],"stateMutability":"nonpayable"},{"type":"function","name":"balanceOf","inputs":[{"name":"account","type":"address","internalType":"address"}],"outputs":[{"name":"","type":"uint256","internalType":"uint256"}],"stateMutability":"view"},{"type":"function","name":"burn","inputs":[{"name":"value","type":"uint256","internalType":"uint256"}],"outputs":[],"stateMutability":"nonpayable"},{"type":"function","name":"burn","inputs":[{"name":"account","type":"address","internalType":"address"},{"name":"amount","type":"uint256","internalType":"uint256"}],"outputs":[],"stateMutability":"nonpayable"},{"type":"function","name":"burnFrom","inputs":[{"name":"account","type":"address","internalType":"address"},{"name":"value","type":"uint256","internalType":"uint256"}],"outputs":[],"stateMutability":"nonpayable"},{"type":"function","name":"decimals","inputs":[],"outputs":[{"name":"","type":"uint8","internalType":"uint8"}],"stateMutability":"view"},{"type":"function","name":"grantAccess","inputs":[{"name":"to","type":"address","internalType":"address"}],"outputs":[],"stateMutability":"nonpayable"},{"type":"function","name":"hasAccess","inputs":[{"name":"user","type":"address","internalType":"address"}],"outputs":[{"name":"","type":"bool","internalType":"bool"}],"stateMutability":"view"},{"type":"function","name":"mint","inputs":[{"name":"account","type":"address","internalType":"address"},{"name":"amount","type":"uint256","internalType":"uint256"}],"outputs":[],"stateMutability":"nonpayable"},{"type":"function","name":"name","inputs":[],"outputs":[{"name":"","type":"string","internalType":"string"}],"stateMutability":"view"},{"type":"function","name":"owner","inputs":[],"outputs":[{"name":"","type":"address","internalType":"address"}],"stateMutability":"view"},{"type":"function","name":"renounceOwnership","inputs":[],"outputs":[],"stateMutability":"nonpayable"},{"type":"function","name":"revokeAccess","inputs":[{"name":"from","type":"address","internalType":"address"}],"outputs":[],"stateMutability":"nonpayable"},{"type":"function","name":"symbol","inputs":[],"outputs":[{"name":"","type":"string","internalType":"string"}],"stateMutability":"view"},{"type":"function","name":"totalSupply","inputs":[],"outputs":[{"name":"","type":"uint256","internalType":"uint256"}],"stateMutability":"view"},{"type":"function","name":"transfer","inputs":[{"name":"to","type":"address","internalType":"address"},{"name":"value","type":"uint256","internalType":"uint256"}],"outputs":[{"name":"","type":"bool","internalType":"bool"}],"stateMutability":"nonpayable"},{"type":"function","name":"transferFrom","inputs":[{"name":"from","type":"address","internalType":"address"},{"name":"to","type":"address","internalType":"address"},{"name":"value","type":"uint256","internalType":"uint256"}],"outputs":[{"name":"","type":"bool","internalType":"bool"}],"stateMutability":"nonpayable"},{"type":"function","name":"transferOwnership","inputs":[{"name":"newOwner","type":"address","internalType":"address"}],"outputs":[],"stateMutability":"nonpayable"},{"type":"event","name":"Approval","inputs":[{"name":"owner","type":"address","indexed":true,"internalType":"address"},{"name":"spender","type":"address","indexed":true,"internalType":"address"},{"name":"value","type":"uint256","indexed":false,"internalType":"uint256"}],"anonymous":false},{"type":"event","name":"OwnershipTransferred","inputs":[{"name":"previousOwner","type":"address","indexed":true,"internalType":"address"},{"name":"newOwner","type":"address","indexed":true,"internalType":"address"}],"anonymous":false},{"type":"event","name":"Transfer","inputs":[{"name":"from","type":"address","indexed":true,"internalType":"address"},{"name":"to","type":"address","indexed":true,"internalType":"address"},{"name":"value","type":"uint256","indexed":false,"internalType":"uint256"}],"anonymous":false},{"type":"error","name":"ERC20InsufficientAllowance","inputs":[{"name":"spender","type":"address","internalType":"address"},{"name":"allowance","type":"uint256","internalType":"uint256"},{"name":"needed","type":"uint256","internalType":"uint256"}]},{"type":"error","name":"ERC20InsufficientBalance","inputs":[{"name":"sender","type":"address","internalType":"address"},{"name":"balance","type":"uint256","internalType":"uint256"},{"name":"needed","type":"uint256","internalType":"uint256"}]},{"type":"error","name":"ERC20InvalidApprover","inputs":[{"name":"approver","type":"address","internalType":"address"}]},{"type":"error","name":"ERC20InvalidReceiver","inputs":[{"name":"receiver","type":"address","internalType":"address"}]},{"type":"error","name":"ERC20InvalidSender","inputs":[{"name":"sender","type":"address","internalType":"address"}]},{"type":"error","name":"ERC20InvalidSpender","inputs":[{"name":"spender","type":"address","internalType":"address"}]},{"type":"error","name":"OwnableInvalidOwner","inputs":[{"name":"owner","type":"address","internalType":"address"}]},{"type":"error","name":"OwnableUnauthorizedAccount","inputs":[{"name":"account","type":"address","internalType":"address"}]}],"bytecode":{"object":"0x608060405234801561001057600080fd5b5033806040518060400160405280600981526020016834a632b0b321b7b4b760b91b81525060405180604001604052806003815260200162494c4360e81b8152508160039081610060919061019f565b50600461006d828261019f565b5050506001600160a01b03811661009e57604051631e4fbdf760e01b81526000600482015260240160405180910390fd5b6100a7816100ae565b505061025d565b600580546001600160a01b038381166001600160a01b0319831681179093556040519116919082907f8be0079c531659141344cd1fd0a4f28419497f9722a3daafe3b4186f6b6457e090600090a35050565b634e487b7160e01b600052604160045260246000fd5b600181811c9082168061012a57607f821691505b60208210810361014a57634e487b7160e01b600052602260045260246000fd5b50919050565b601f82111561019a57806000526020600020601f840160051c810160208510156101775750805b601f840160051c820191505b818110156101975760008155600101610183565b50505b505050565b81516001600160401b038111156101b8576101b8610100565b6101cc816101c68454610116565b84610150565b6020601f82116001811461020057600083156101e85750848201515b600019600385901b1c1916600184901b178455610197565b600084815260208120601f198516915b828110156102305787850151825560209485019460019092019101610210565b508482101561024e5786840151600019600387901b60f8161c191681555b50505050600190811b01905550565b610b418061026c6000396000f3fe608060405234801561001057600080fd5b50600436106101215760003560e01c8063715018a6116100ad57806395d89b411161007157806395d89b41146102745780639dc29fac1461027c578063a9059cbb1461028f578063dd62ed3e146102a2578063f2fde38b146102db57600080fd5b8063715018a6146101ff57806379cc67901461020757806385e685311461021a5780638da5cb5b1461022d57806395a078e81461024857600080fd5b806323b872dd116100f457806323b872dd1461018e578063313ce567146101a157806340c10f19146101b057806342966c68146101c357806370a08231146101d657600080fd5b806306fdde0314610126578063095ea7b3146101445780630ae5e7391461016757806318160ddd1461017c575b600080fd5b61012e6102ee565b60405161013b9190610924565b60405180910390f35b61015761015236600461098e565b610380565b604051901515815260200161013b565b61017a6101753660046109b8565b61039a565b005b6002545b60405190815260200161013b565b61015761019c3660046109da565b6103c6565b6040516012815260200161013b565b61017a6101be36600461098e565b6103ea565b61017a6101d1366004610a17565b61044a565b6101806101e43660046109b8565b6001600160a01b031660009081526020819052604090205490565b61017a610457565b61017a61021536600461098e565b61046b565b61017a6102283660046109b8565b610480565b6005546040516001600160a01b03909116815260200161013b565b6101576102563660046109b8565b6001600160a01b031660009081526006602052604090205460ff1690565b61012e6104a9565b61017a61028a36600461098e565b6104b8565b61015761029d36600461098e565b610501565b6101806102b0366004610a30565b6001600160a01b03918216600090815260016020908152604080832093909416825291909152205490565b61017a6102e93660046109b8565b61050f565b6060600380546102fd90610a63565b80601f016020809104026020016040519081016040528092919081815260200182805461032990610a63565b80156103765780601f1061034b57610100808354040283529160200191610376565b820191906000526020600020905b81548152906001019060200180831161035957829003601f168201915b5050505050905090565b60003361038e81858561054a565b60019150505b92915050565b6103a261055c565b6001600160a01b03166000908152600660205260409020805460ff19166001179055565b6000336103d4858285610589565b6103df858585610608565b506001949350505050565b6005546001600160a01b031633148061041757503360009081526006602052604090205460ff1615156001145b61043c5760405162461bcd60e51b815260040161043390610a9d565b60405180910390fd5b6104468282610667565b5050565b610454338261069d565b50565b61045f61055c565b61046960006106d3565b565b610476823383610589565b610446828261069d565b61048861055c565b6001600160a01b03166000908152600660205260409020805460ff19169055565b6060600480546102fd90610a63565b6005546001600160a01b03163314806104e557503360009081526006602052604090205460ff1615156001145b6104765760405162461bcd60e51b815260040161043390610a9d565b60003361038e818585610608565b61051761055c565b6001600160a01b03811661054157604051631e4fbdf760e01b815260006004820152602401610433565b610454816106d3565b6105578383836001610725565b505050565b6005546001600160a01b031633146104695760405163118cdaa760e01b8152336004820152602401610433565b6001600160a01b0383811660009081526001602090815260408083209386168352929052205460001981101561060257818110156105f357604051637dc7a0d960e11b81526001600160a01b03841660048201526024810182905260448101839052606401610433565b61060284848484036000610725565b50505050565b6001600160a01b03831661063257604051634b637e8f60e11b815260006004820152602401610433565b6001600160a01b03821661065c5760405163ec442f0560e01b815260006004820152602401610433565b6105578383836107fa565b6001600160a01b0382166106915760405163ec442f0560e01b815260006004820152602401610433565b610446600083836107fa565b6001600160a01b0382166106c757604051634b637e8f60e11b815260006004820152602401610433565b610446826000836107fa565b600580546001600160a01b038381166001600160a01b0319831681179093556040519116919082907f8be0079c531659141344cd1fd0a4f28419497f9722a3daafe3b4186f6b6457e090600090a35050565b6001600160a01b03841661074f5760405163e602df0560e01b815260006004820152602401610433565b6001600160a01b03831661077957604051634a1406b160e11b815260006004820152602401610433565b6001600160a01b038085166000908152600160209081526040808320938716835292905220829055801561060257826001600160a01b0316846001600160a01b03167f8c5be1e5ebec7d5bd14f71427d1e84f3dd0314c0f7b2291e5b200ac8c7c3b925846040516107ec91815260200190565b60405180910390a350505050565b6001600160a01b03831661082557806002600082825461081a9190610aea565b909155506108979050565b6001600160a01b038316600090815260208190526040902054818110156108785760405163391434e360e21b81526001600160a01b03851660048201526024810182905260448101839052606401610433565b6001600160a01b03841660009081526020819052604090209082900390555b6001600160a01b0382166108b3576002805482900390556108d2565b6001600160a01b03821660009081526020819052604090208054820190555b816001600160a01b0316836001600160a01b03167fddf252ad1be2c89b69c2b068fc378daa952ba7f163c4a11628f55a4df523b3ef8360405161091791815260200190565b60405180910390a3505050565b602081526000825180602084015260005b818110156109525760208186018101516040868401015201610935565b506000604082850101526040601f19601f83011684010191505092915050565b80356001600160a01b038116811461098957600080fd5b919050565b600080604083850312156109a157600080fd5b6109aa83610972565b946020939093013593505050565b6000602082840312156109ca57600080fd5b6109d382610972565b9392505050565b6000806000606084860312156109ef57600080fd5b6109f884610972565b9250610a0660208501610972565b929592945050506040919091013590565b600060208284031215610a2957600080fd5b5035919050565b60008060408385031215610a4357600080fd5b610a4c83610972565b9150610a5a60208401610972565b90509250929050565b600181811c90821680610a7757607f821691505b602082108103610a9757634e487b7160e01b600052602260045260246000fd5b50919050565b6020808252602d908201527f46756e6374696f6e2063616e2062652063616c6c6564206f6e6c79206279207060408201526c32b936b4ba3a32b2103ab9b2b960991b606082015260800190565b8082018082111561039457634e487b7160e01b600052601160045260246000fdfea2646970667358221220331b9892c9ef30ff62cab999abfabdd67f03e50c19449a3f65f7ee40064a4f0264736f6c634300081c0033","linkReferences":{}},"methodIdentifiers":{"allowance(address,address)":"dd62ed3e","approve(address,uint256)":"095ea7b3","balanceOf(address)":"70a08231","burn(address,uint256)":"9dc29fac","burn(uint256)":"42966c68","burnFrom(address,uint256)":"79cc6790","decimals()":"313ce567","grantAccess(address)":"0ae5e739","hasAccess(address)":"95a078e8","mint(address,uint256)":"40c10f19","name()":"06fdde03","owner()":"8da5cb5b","renounceOwnership()":"715018a6","revokeAccess(address)":"85e68531","symbol()":"95d89b41","totalSupply()":"18160ddd","transfer(address,uint256)":"a9059cbb","transferFrom(address,address,uint256)":"23b872dd","transferOwnership(address)":"f2fde38b"},"id":43}