{"abi":[{"type":"constructor","inputs":[{"name":"erc20Address","type":"address","internalType":"address"}],"stateMutability":"nonpayable"},{"type":"function","name":"LEAF","inputs":[],"outputs":[{"name":"","type":"uint256","internalType":"uint256"}],"stateMutability":"view"},{"type":"function","name":"balanceOf","inputs":[{"name":"account","type":"address","internalType":"address"},{"name":"id","type":"uint256","internalType":"uint256"}],"outputs":[{"name":"","type":"uint256","internalType":"uint256"}],"stateMutability":"view"},{"type":"function","name":"balanceOfBatch","inputs":[{"name":"accounts","type":"address[]","internalType":"address[]"},{"name":"ids","type":"uint256[]","internalType":"uint256[]"}],"outputs":[{"name":"","type":"uint256[]","internalType":"uint256[]"}],"stateMutability":"view"},{"type":"function","name":"burn","inputs":[{"name":"account","type":"address","internalType":"address"},{"name":"id","type":"uint256","internalType":"uint256"},{"name":"amount","type":"uint256","internalType":"uint256"}],"outputs":[],"stateMutability":"nonpayable"},{"type":"function","name":"burnBatch","inputs":[{"name":"account","type":"address","internalType":"address"},{"name":"ids","type":"uint256[]","internalType":"uint256[]"},{"name":"amounts","type":"uint256[]","internalType":"uint256[]"}],"outputs":[],"stateMutability":"nonpayable"},{"type":"function","name":"burnLeafs","inputs":[{"name":"account","type":"address","internalType":"address"},{"name":"amount","type":"uint256","internalType":"uint256"}],"outputs":[],"stateMutability":"nonpayable"},{"type":"function","name":"isApprovedForAll","inputs":[{"name":"account","type":"address","internalType":"address"},{"name":"operator","type":"address","internalType":"address"}],"outputs":[{"name":"","type":"bool","internalType":"bool"}],"stateMutability":"view"},{"type":"function","name":"leafERC20","inputs":[],"outputs":[{"name":"","type":"address","internalType":"contract ILeafERC20Token"}],"stateMutability":"view"},{"type":"function","name":"mint","inputs":[{"name":"account","type":"address","internalType":"address"},{"name":"id","type":"uint256","internalType":"uint256"},{"name":"amount","type":"uint256","internalType":"uint256"},{"name":"data","type":"bytes","internalType":"bytes"}],"outputs":[],"stateMutability":"nonpayable"},{"type":"function","name":"mintBatch","inputs":[{"name":"to","type":"address","internalType":"address"},{"name":"ids","type":"uint256[]","internalType":"uint256[]"},{"name":"amounts","type":"uint256[]","internalType":"uint256[]"},{"name":"data","type":"bytes","internalType":"bytes"}],"outputs":[],"stateMutability":"nonpayable"},{"type":"function","name":"mintLeafs","inputs":[{"name":"to","type":"address","internalType":"address"},{"name":"amount","type":"uint256","internalType":"uint256"},{"name":"data","type":"bytes","internalType":"bytes"}],"outputs":[],"stateMutability":"nonpayable"},{"type":"function","name":"owner","inputs":[],"outputs":[{"name":"","type":"address","internalType":"address"}],"stateMutability":"view"},{"type":"function","name":"renounceOwnership","inputs":[],"outputs":[],"stateMutability":"nonpayable"},{"type":"function","name":"safeBatchTransferFrom","inputs":[{"name":"from","type":"address","internalType":"address"},{"name":"to","type":"address","internalType":"address"},{"name":"ids","type":"uint256[]","internalType":"uint256[]"},{"name":"values","type":"uint256[]","internalType":"uint256[]"},{"name":"data","type":"bytes","internalType":"bytes"}],"outputs":[],"stateMutability":"nonpayable"},{"type":"function","name":"safeTransferFrom","inputs":[{"name":"from","type":"address","internalType":"address"},{"name":"to","type":"address","internalType":"address"},{"name":"id","type":"uint256","internalType":"uint256"},{"name":"value","type":"uint256","internalType":"uint256"},{"name":"data","type":"bytes","internalType":"bytes"}],"outputs":[],"stateMutability":"nonpayable"},{"type":"function","name":"setApprovalForAll","inputs":[{"name":"operator","type":"address","internalType":"address"},{"name":"approved","type":"bool","internalType":"bool"}],"outputs":[],"stateMutability":"nonpayable"},{"type":"function","name":"setURI","inputs":[{"name":"newuri","type":"string","internalType":"string"}],"outputs":[],"stateMutability":"nonpayable"},{"type":"function","name":"supportsInterface","inputs":[{"name":"interfaceId","type":"bytes4","internalType":"bytes4"}],"outputs":[{"name":"","type":"bool","internalType":"bool"}],"stateMutability":"view"},{"type":"function","name":"transferOwnership","inputs":[{"name":"newOwner","type":"address","internalType":"address"}],"outputs":[],"stateMutability":"nonpayable"},{"type":"function","name":"uri","inputs":[{"name":"","type":"uint256","internalType":"uint256"}],"outputs":[{"name":"","type":"string","internalType":"string"}],"stateMutability":"view"},{"type":"event","name":"ApprovalForAll","inputs":[{"name":"account","type":"address","indexed":true,"internalType":"address"},{"name":"operator","type":"address","indexed":true,"internalType":"address"},{"name":"approved","type":"bool","indexed":false,"internalType":"bool"}],"anonymous":false},{"type":"event","name":"OwnershipTransferred","inputs":[{"name":"previousOwner","type":"address","indexed":true,"internalType":"address"},{"name":"newOwner","type":"address","indexed":true,"internalType":"address"}],"anonymous":false},{"type":"event","name":"TransferBatch","inputs":[{"name":"operator","type":"address","indexed":true,"internalType":"address"},{"name":"from","type":"address","indexed":true,"internalType":"address"},{"name":"to","type":"address","indexed":true,"internalType":"address"},{"name":"ids","type":"uint256[]","indexed":false,"internalType":"uint256[]"},{"name":"values","type":"uint256[]","indexed":false,"internalType":"uint256[]"}],"anonymous":false},{"type":"event","name":"TransferSingle","inputs":[{"name":"operator","type":"address","indexed":true,"internalType":"address"},{"name":"from","type":"address","indexed":true,"internalType":"address"},{"name":"to","type":"address","indexed":true,"internalType":"address"},{"name":"id","type":"uint256","indexed":false,"internalType":"uint256"},{"name":"value","type":"uint256","indexed":false,"internalType":"uint256"}],"anonymous":false},{"type":"event","name":"URI","inputs":[{"name":"value","type":"string","indexed":false,"internalType":"string"},{"name":"id","type":"uint256","indexed":true,"internalType":"uint256"}],"anonymous":false},{"type":"error","name":"ERC1155InsufficientBalance","inputs":[{"name":"sender","type":"address","internalType":"address"},{"name":"balance","type":"uint256","internalType":"uint256"},{"name":"needed","type":"uint256","internalType":"uint256"},{"name":"tokenId","type":"uint256","internalType":"uint256"}]},{"type":"error","name":"ERC1155InvalidApprover","inputs":[{"name":"approver","type":"address","internalType":"address"}]},{"type":"error","name":"ERC1155InvalidArrayLength","inputs":[{"name":"idsLength","type":"uint256","internalType":"uint256"},{"name":"valuesLength","type":"uint256","internalType":"uint256"}]},{"type":"error","name":"ERC1155InvalidOperator","inputs":[{"name":"operator","type":"address","internalType":"address"}]},{"type":"error","name":"ERC1155InvalidReceiver","inputs":[{"name":"receiver","type":"address","internalType":"address"}]},{"type":"error","name":"ERC1155InvalidSender","inputs":[{"name":"sender","type":"address","internalType":"address"}]},{"type":"error","name":"ERC1155MissingApprovalForAll","inputs":[{"name":"operator","type":"address","internalType":"address"},{"name":"owner","type":"address","internalType":"address"}]},{"type":"error","name":"OwnableInvalidOwner","inputs":[{"name":"owner","type":"address","internalType":"address"}]},{"type":"error","name":"OwnableUnauthorizedAccount","inputs":[{"name":"account","type":"address","internalType":"address"}]}],"bytecode":{"object":"0x608060405234801561001057600080fd5b50604051611cb5380380611cb583398101604081905261002f9161012e565b60408051808201909152601f81527f68747470733a2f2f6578616d706c652d6c6561662d696d6167652d7b69647d006020820152339061006e816100cc565b506001600160a01b03811661009d57604051631e4fbdf760e01b81526000600482015260240160405180910390fd5b6100a6816100dc565b50600480546001600160a01b0319166001600160a01b03929092169190911790556102bb565b60026100d882826101fd565b5050565b600380546001600160a01b038381166001600160a01b0319831681179093556040519116919082907f8be0079c531659141344cd1fd0a4f28419497f9722a3daafe3b4186f6b6457e090600090a35050565b60006020828403121561014057600080fd5b81516001600160a01b038116811461015757600080fd5b9392505050565b634e487b7160e01b600052604160045260246000fd5b600181811c9082168061018857607f821691505b6020821081036101a857634e487b7160e01b600052602260045260246000fd5b50919050565b601f8211156101f857806000526020600020601f840160051c810160208510156101d55750805b601f840160051c820191505b818110156101f557600081556001016101e1565b50505b505050565b81516001600160401b038111156102165761021661015e565b61022a816102248454610174565b846101ae565b6020601f82116001811461025e57600083156102465750848201515b600019600385901b1c1916600184901b1784556101f5565b600084815260208120601f198516915b8281101561028e578785015182556020948501946001909201910161026e565b50848210156102ac5786840151600019600387901b60f8161c191681555b50505050600190811b01905550565b6119eb806102ca6000396000f3fe608060405234801561001057600080fd5b506004361061012b5760003560e01c80636edfdc9a116100ad578063ca94802d11610071578063ca94802d14610288578063e985e9c51461029b578063f242432a146102ae578063f2fde38b146102c1578063f5298aca146102d457600080fd5b80636edfdc9a14610222578063715018a614610235578063731133e91461023d5780638da5cb5b14610250578063a22cb4651461027557600080fd5b80631f7fdffa116100f45780631f7fdffa146101c15780632eb2c2d6146101d4578063330cefed146101e75780634e1273f4146101ef5780636b20c4541461020f57600080fd5b8062fdd58e1461013057806301ffc9a71461015657806302fe5305146101795780630e89341c1461018e5780631d2772c2146101ae575b600080fd5b61014361013e366004611036565b6102e7565b6040519081526020015b60405180910390f35b610169610164366004611076565b61030f565b604051901515815260200161014d565b61018c61018736600461113b565b61035f565b005b6101a161019c36600461118b565b610373565b60405161014d91906111ea565b61018c6101bc366004611036565b610407565b61018c6101cf3660046112ad565b61041f565b61018c6101e236600461134f565b610439565b610143600081565b6102026101fd366004611402565b6104a5565b60405161014d9190611505565b61018c61021d366004611518565b610571565b61018c61023036600461158f565b610589565b61018c61059e565b61018c61024b3660046115db565b6105b2565b6003546001600160a01b03165b6040516001600160a01b03909116815260200161014d565b61018c610283366004611623565b6105c6565b60045461025d906001600160a01b031681565b6101696102a936600461165f565b6105d1565b61018c6102bc366004611692565b6105ff565b61018c6102cf3660046116ea565b61065e565b61018c6102e2366004611705565b610699565b6000818152602081815260408083206001600160a01b03861684529091529020545b92915050565b60006001600160e01b03198216636cdb3d1360e11b148061034057506001600160e01b031982166303a24d0760e21b145b8061030957506301ffc9a760e01b6001600160e01b0319831614610309565b6103676106ac565b610370816106d9565b50565b60606002805461038290611738565b80601f01602080910402602001604051908101604052809291908181526020018280546103ae90611738565b80156103fb5780601f106103d0576101008083540402835291602001916103fb565b820191906000526020600020905b8154815290600101906020018083116103de57829003601f168201915b50505050509050919050565b61040f6106ac565b61041b826000836106e5565b5050565b6104276106ac565b61043384848484610754565b50505050565b336001600160a01b038616811480159061045a575061045886826105d1565b155b156104905760405163711bec9160e11b81526001600160a01b038083166004830152871660248201526044015b60405180910390fd5b61049d868686868661078c565b505050505050565b606081518351146104d65781518351604051635b05999160e01b815260048101929092526024820152604401610487565b600083516001600160401b038111156104f1576104f161109a565b60405190808252806020026020018201604052801561051a578160200160208202803683370190505b50905060005b845181101561056957602080820286010151610544906020808402870101516102e7565b82828151811061055657610556611772565b6020908102919091010152600101610520565b509392505050565b6105796106ac565b6105848383836107ec565b505050565b6105916106ac565b6105848360008484610832565b6105a66106ac565b6105b0600061088f565b565b6105ba6106ac565b61043384848484610832565b61041b3383836108e1565b6001600160a01b03918216600090815260016020908152604080832093909416825291909152205460ff1690565b336001600160a01b0386168114801590610620575061061e86826105d1565b155b156106515760405163711bec9160e11b81526001600160a01b03808316600483015287166024820152604401610487565b61049d8686868686610977565b6106666106ac565b6001600160a01b03811661069057604051631e4fbdf760e01b815260006004820152602401610487565b6103708161088f565b6106a16106ac565b6105848383836106e5565b6003546001600160a01b031633146105b05760405163118cdaa760e01b8152336004820152602401610487565b600261041b82826117cf565b6001600160a01b03831661070e57604051626a0d4560e21b815260006004820152602401610487565b604080516001808252602082018590528183019081526060820184905260a0820190925260006080820181815291929161074d91879185908590610a05565b5050505050565b6001600160a01b03841661077e57604051632bfa23e760e11b815260006004820152602401610487565b610433600085858585610a05565b6001600160a01b0384166107b657604051632bfa23e760e11b815260006004820152602401610487565b6001600160a01b0385166107df57604051626a0d4560e21b815260006004820152602401610487565b61074d8585858585610a05565b6001600160a01b03831661081557604051626a0d4560e21b815260006004820152602401610487565b610584836000848460405180602001604052806000815250610a05565b6001600160a01b03841661085c57604051632bfa23e760e11b815260006004820152602401610487565b6040805160018082526020820186905281830190815260608201859052608082019092529061049d600087848487610a05565b600380546001600160a01b038381166001600160a01b0319831681179093556040519116919082907f8be0079c531659141344cd1fd0a4f28419497f9722a3daafe3b4186f6b6457e090600090a35050565b6001600160a01b03821661090a5760405162ced3e160e81b815260006004820152602401610487565b6001600160a01b03838116600081815260016020908152604080832094871680845294825291829020805460ff191686151590811790915591519182527f17307eab39ab6107e8899845ad3d59bd9653f200f220920489ca2b5937696c31910160405180910390a3505050565b6001600160a01b0384166109a157604051632bfa23e760e11b815260006004820152602401610487565b6001600160a01b0385166109ca57604051626a0d4560e21b815260006004820152602401610487565b604080516001808252602082018690528183019081526060820185905260808201909252906109fc8787848487610a05565b50505050505050565b610a1185858585610a58565b6001600160a01b0384161561074d5782513390600103610a4a5760208481015190840151610a43838989858589610bf9565b505061049d565b61049d818787878787610d1d565b610a6484848484610e06565b60005b825181101561074d576000838281518110610a8457610a84611772565b602002602001015103610bf1576001600160a01b038516610b4c5760045482516001600160a01b03909116906340c10f19908690859085908110610aca57610aca611772565b60200260200101516040518363ffffffff1660e01b8152600401610b039291906001600160a01b03929092168252602082015260400190565b6020604051808303816000875af1158015610b22573d6000803e3d6000fd5b505050506040513d601f19601f82011682018060405250810190610b46919061188d565b50610bf1565b6001600160a01b038416610bf15760045482516001600160a01b0390911690639dc29fac908790859085908110610b8557610b85611772565b60200260200101516040518363ffffffff1660e01b8152600401610bbe9291906001600160a01b03929092168252602082015260400190565b600060405180830381600087803b158015610bd857600080fd5b505af1158015610bec573d6000803e3d6000fd5b505050505b600101610a67565b6001600160a01b0384163b1561049d5760405163f23a6e6160e01b81526001600160a01b0385169063f23a6e6190610c3d90899089908890889088906004016118a6565b6020604051808303816000875af1925050508015610c78575060408051601f3d908101601f19168201909252610c75918101906118eb565b60015b610ce1573d808015610ca6576040519150601f19603f3d011682016040523d82523d6000602084013e610cab565b606091505b508051600003610cd957604051632bfa23e760e11b81526001600160a01b0386166004820152602401610487565b805181602001fd5b6001600160e01b0319811663f23a6e6160e01b146109fc57604051632bfa23e760e11b81526001600160a01b0386166004820152602401610487565b6001600160a01b0384163b1561049d5760405163bc197c8160e01b81526001600160a01b0385169063bc197c8190610d619089908990889088908890600401611908565b6020604051808303816000875af1925050508015610d9c575060408051601f3d908101601f19168201909252610d99918101906118eb565b60015b610dca573d808015610ca6576040519150601f19603f3d011682016040523d82523d6000602084013e610cab565b6001600160e01b0319811663bc197c8160e01b146109fc57604051632bfa23e760e11b81526001600160a01b0386166004820152602401610487565b8051825114610e355781518151604051635b05999160e01b815260048101929092526024820152604401610487565b3360005b8351811015610f3b576020818102858101820151908501909101516001600160a01b03881615610eec576000828152602081815260408083206001600160a01b038c16845290915290205481811015610ec5576040516303dee4c560e01b81526001600160a01b038a166004820152602481018290526044810183905260648101849052608401610487565b6000838152602081815260408083206001600160a01b038d16845290915290209082900390555b6001600160a01b03871615610f31576000828152602081815260408083206001600160a01b038b16845290915281208054839290610f2b908490611966565b90915550505b5050600101610e39565b508251600103610fbc5760208301516000906020840151909150856001600160a01b0316876001600160a01b0316846001600160a01b03167fc3d58168c5ae7397731d063d5bbf3d657854427343f4c083240f7aacaa2d0f628585604051610fad929190918252602082015260400190565b60405180910390a4505061074d565b836001600160a01b0316856001600160a01b0316826001600160a01b03167f4a39dc06d4c0dbc64b70af90fd698a233a518aa5d07e595d983b8c0526c8f7fb868660405161100b929190611987565b60405180910390a45050505050565b80356001600160a01b038116811461103157600080fd5b919050565b6000806040838503121561104957600080fd5b6110528361101a565b946020939093013593505050565b6001600160e01b03198116811461037057600080fd5b60006020828403121561108857600080fd5b813561109381611060565b9392505050565b634e487b7160e01b600052604160045260246000fd5b604051601f8201601f191681016001600160401b03811182821017156110d8576110d861109a565b604052919050565b6000806001600160401b038411156110fa576110fa61109a565b50601f8301601f191660200161110f816110b0565b91505082815283838301111561112457600080fd5b828260208301376000602084830101529392505050565b60006020828403121561114d57600080fd5b81356001600160401b0381111561116357600080fd5b8201601f8101841361117457600080fd5b611183848235602084016110e0565b949350505050565b60006020828403121561119d57600080fd5b5035919050565b6000815180845260005b818110156111ca576020818501810151868301820152016111ae565b506000602082860101526020601f19601f83011685010191505092915050565b60208152600061109360208301846111a4565b60006001600160401b038211156112165761121661109a565b5060051b60200190565b600082601f83011261123157600080fd5b813561124461123f826111fd565b6110b0565b8082825260208201915060208360051b86010192508583111561126657600080fd5b602085015b8381101561128357803583526020928301920161126b565b5095945050505050565b600082601f83011261129e57600080fd5b611093838335602085016110e0565b600080600080608085870312156112c357600080fd5b6112cc8561101a565b935060208501356001600160401b038111156112e757600080fd5b6112f387828801611220565b93505060408501356001600160401b0381111561130f57600080fd5b61131b87828801611220565b92505060608501356001600160401b0381111561133757600080fd5b6113438782880161128d565b91505092959194509250565b600080600080600060a0868803121561136757600080fd5b6113708661101a565b945061137e6020870161101a565b935060408601356001600160401b0381111561139957600080fd5b6113a588828901611220565b93505060608601356001600160401b038111156113c157600080fd5b6113cd88828901611220565b92505060808601356001600160401b038111156113e957600080fd5b6113f58882890161128d565b9150509295509295909350565b6000806040838503121561141557600080fd5b82356001600160401b0381111561142b57600080fd5b8301601f8101851361143c57600080fd5b803561144a61123f826111fd565b8082825260208201915060208360051b85010192508783111561146c57600080fd5b6020840193505b82841015611495576114848461101a565b825260209384019390910190611473565b945050505060208301356001600160401b038111156114b357600080fd5b6114bf85828601611220565b9150509250929050565b600081518084526020840193506020830160005b828110156114fb5781518652602095860195909101906001016114dd565b5093949350505050565b60208152600061109360208301846114c9565b60008060006060848603121561152d57600080fd5b6115368461101a565b925060208401356001600160401b0381111561155157600080fd5b61155d86828701611220565b92505060408401356001600160401b0381111561157957600080fd5b61158586828701611220565b9150509250925092565b6000806000606084860312156115a457600080fd5b6115ad8461101a565b92506020840135915060408401356001600160401b038111156115cf57600080fd5b6115858682870161128d565b600080600080608085870312156115f157600080fd5b6115fa8561101a565b9350602085013592506040850135915060608501356001600160401b0381111561133757600080fd5b6000806040838503121561163657600080fd5b61163f8361101a565b91506020830135801515811461165457600080fd5b809150509250929050565b6000806040838503121561167257600080fd5b61167b8361101a565b91506116896020840161101a565b90509250929050565b600080600080600060a086880312156116aa57600080fd5b6116b38661101a565b94506116c16020870161101a565b9350604086013592506060860135915060808601356001600160401b038111156113e957600080fd5b6000602082840312156116fc57600080fd5b6110938261101a565b60008060006060848603121561171a57600080fd5b6117238461101a565b95602085013595506040909401359392505050565b600181811c9082168061174c57607f821691505b60208210810361176c57634e487b7160e01b600052602260045260246000fd5b50919050565b634e487b7160e01b600052603260045260246000fd5b601f82111561058457806000526020600020601f840160051c810160208510156117af5750805b601f840160051c820191505b8181101561074d57600081556001016117bb565b81516001600160401b038111156117e8576117e861109a565b6117fc816117f68454611738565b84611788565b6020601f82116001811461183057600083156118185750848201515b600019600385901b1c1916600184901b17845561074d565b600084815260208120601f198516915b828110156118605787850151825560209485019460019092019101611840565b508482101561187e5786840151600019600387901b60f8161c191681555b50505050600190811b01905550565b60006020828403121561189f57600080fd5b5051919050565b6001600160a01b03868116825285166020820152604081018490526060810183905260a0608082018190526000906118e0908301846111a4565b979650505050505050565b6000602082840312156118fd57600080fd5b815161109381611060565b6001600160a01b0386811682528516602082015260a060408201819052600090611934908301866114c9565b828103606084015261194681866114c9565b9050828103608084015261195a81856111a4565b98975050505050505050565b8082018082111561030957634e487b7160e01b600052601160045260246000fd5b60408152600061199a60408301856114c9565b82810360208401526119ac81856114c9565b9594505050505056fea2646970667358221220108175e74ce7d81adebe08d743ba7f8d42638218e75f878bc04463c9e76f8b1864736f6c634300081c0033","linkReferences":{}},"methodIdentifiers":{"LEAF()":"330cefed","balanceOf(address,uint256)":"00fdd58e","balanceOfBatch(address[],uint256[])":"4e1273f4","burn(address,uint256,uint256)":"f5298aca","burnBatch(address,uint256[],uint256[])":"6b20c454","burnLeafs(address,uint256)":"1d2772c2","isApprovedForAll(address,address)":"e985e9c5","leafERC20()":"ca94802d","mint(address,uint256,uint256,bytes)":"731133e9","mintBatch(address,uint256[],uint256[],bytes)":"1f7fdffa","mintLeafs(address,uint256,bytes)":"6edfdc9a","owner()":"8da5cb5b","renounceOwnership()":"715018a6","safeBatchTransferFrom(address,address,uint256[],uint256[],bytes)":"2eb2c2d6","safeTransferFrom(address,address,uint256,uint256,bytes)":"f242432a","setApprovalForAll(address,bool)":"a22cb465","setURI(string)":"02fe5305","supportsInterface(bytes4)":"01ffc9a7","transferOwnership(address)":"f2fde38b","uri(uint256)":"0e89341c"},"id":37}